:020000040000FA
:10000000FC7F00206D0600005D0600006106000018
:1000100000000000000000000000000000000000E0
:100020000000000000000000000000006506000065
:10003000000000000000000069060000ED0600005E
:1000400010B5064C2378002B07D1054B002B02D0AE
:10005000044800E000BF0123237010BD58000020B9
:1000600000000000CC1B000008B5084B002B03D09B
:100070000748084900E000BF07480368002B03D089
:10008000064B002B00D0984708BDC046000000007A
:10009000CC1B00005C000020540000200000000089
:1000A00010B50124C3695B081C42FBD1036802241C
:1000B000A34303600124C3691C42FCD104680123EB
:1000C00023430360012403681C42FCD10124C3695B
:1000D0001C42FCD1C3695B081C42F8D10A4B1A438D
:1000E00002600122C3699B081A42FBD1C0239B0214
:1000F000436081810122C3695B081A42FBD1026817
:1001000002231343036010BD040000400122037E5C
:100110001A42FCD0018570470122037E9B081A42D7
:10012000FBD0438BDA0705D4438B9A0702D4438B69
:100130005A0702D50122024B1A70008DC0B27047D7
:1001400074000020F8B5041C03689A8B11072FD5A2
:10015000998B08220A439A8380229A721120802167
:100160004900585440200621FF315854822149004B
:100170005A54144A5768144E3740C025AD052F43D2
:10018000576057693E4035435561104D1560104D1D
:10019000156156680F4D35408026B60235435560CF
:1001A0005568AD0BAD03556058540023237106E02C
:1001B0000822FF329B5CDA0601D500F055FB20795E
:1001C000F8BDC0468C010020FFFFFF8F8C0000208F
:1001D0000C010020FF3F00F0016000230371437118
:1001E000034B83600A78022313430B707047C046A9
:1001F0004501000010B5394BD96920220A43DA6164
:10020000374B5822995C0120014399543C22995C58
:100210000F24A14399549C5C0621214399545921F0
:100220005C5C20435854985C0F2101409954985CC1
:100230006021014399542B4A2B4B5A801A1C537846
:100240005BB2002BFBDB294B197801220A431A70A1
:10025000191C01228B781A42FCD1254B1B689B0389
:10026000DB0E1F2B00D10523204A9901108D214B55
:1002700003400B4313851E4B1B685B02DB0E1F2BD9
:1002800000D11D23194A118D1F2081430B43138573
:10029000174B1A689201520F072A00D10322134B01
:1002A0001103188D144A02400A431A851A787F21D7
:1002B0000A401A70197804220A431A700F485862CB
:1002C0001A890C218A431A811A8901218A431A81C9
:1002D0000021802201F009FB10BDC046000400404F
:1002E0000044004106400000000C00400050004166
:1002F000246080003FF8FFFFFF8FFFFF8C0100208C
:10030000F0B5474680B4041C171C1D1C1E1C5B0165
:10031000274AD31810335B685B005B0F033301225D
:100320009A40BA4208D86B01214AD31858698022F2
:10033000120602435A610BE02A1C531E9A41920195
:100340001C4BD2189046101C3A1C01F0C5FA4146CD
:100350006B01174AD218131C1161B904890C526938
:10036000920B92030A435A615969134A0A405A612F
:100370002B1C08335B01E318DA7903210A400221C0
:100380000A43D979032081430A43DA7159798022DB
:1003900052420A435A710836760103250221A319F5
:1003A000DB792B401942FAD0381C04BC9046F0BDD2
:1003B0008C0100200C010020FF3F00F038B5041C28
:1003C000151C1F4B1B78002B13D11E4B1E4A1A64A1
:1003D0005A6C920B92035A64586C1C4A02405A643D
:1003E000A2235B00E05C40220243E2540122144B52
:1003F0001A704823FF33E35CDA071ED5114B5B6CA0
:100400009B049B0CAB4203D20E4B5D6CAD04AD0C58
:10041000081C0D492A1C01F05FFA4823FF33E25CF7
:1004200003210A4001210A43E15C032081430A437E
:10043000E2540022024B1A7000E00025281C38BD4F
:10044000750000208C010020CC000020FF3F00F050
:10045000002908D00623FF33C25C30218A432021C3
:100460000A43C25407E00623FF33C25C30218A43AB
:1004700010210A43C254704710B5104B5A69920BB1
:1004800092035A610823FF33C25C03210A40022110
:100490000A43C15C0324A1430A43C2540623FF3329
:1004A000C15C802252420A43C2540824FF34032113
:1004B0000222035D0B401A42FBD010BD8C010020CC
:1004C00080235B421943C9B28172704770B5032221
:1004D000A0235B00C254134B5C6C134A1440C02130
:1004E00089050C435C6440244625FF3544550F4D77
:1004F0001D64302690256D0046555D6B15402943DF
:100500005963802192256D004155094D1D63B02529
:100510006D0044555C6F22405A67B2235B00C154A2
:1005200070BDC0468C010020FFFFFF8FCC00002073
:100530004C010020404B5A681E218A4302210A4385
:100540005A603E4B996908220A439A613C4B3D4AE6
:100550009A82998A02220A439A82191C0222CB6843
:100560001A42FCD00122384B1A7001211A780A4233
:1005700003D05A7852B2002AF8DB0122324B9A603B
:100580001A1C53785BB2002BFBDB304A2E4B5A60AF
:100590001A1C53785BB2002BFBDB8222D2012A4B60
:1005A0005A801A1C53785BB2002BFBDB244B9A8CCD
:1005B00080218A439A84191C1022CB681A42FCD0ED
:1005C000234A1F4BDA62191C1022CB681A42FCD056
:1005D0001B4B998C1F4A0A439A84191C1022CB6822
:1005E0001A42FCD0164B998C02220A439A841A1C98
:1005F00080214020D3681942FCD0D3681842F9D03A
:100600000F491022CB681A42FCD000220E4B9A6090
:100610001A1C53785BB2002BFBDB0F4A0A4B5A6063
:100620001A1C53785BB2002BFBDB044B00221A72BE
:100630005A729A72DA72704700400041000400401A
:10064000000800400C060000000C004001050100FD
:10065000B805FF7D040A0000000703000EBEFEE798
:100660000DBEFEE705BEFEE702BEFEE710B5184B65
:10067000184A9A4216D0131C174A9A4212D0144BA9
:10068000144A9A420ED2154B11480330C01A800802
:10069000013080000023111C0F4AD458CC50043381
:1006A0008342FAD10E4B0F4A9A420DD00CD20E4B18
:1006B0000B490331C91A890801318900043BC91863
:1006C000002204C38B42FCD100F014F8FEE7C046C0
:1006D0005800002000000020D01B00000400002073
:1006E0009C030020580000205C00002008B500F0AA
:1006F0008FF808BD70B53823394AD35CDA0703D5C3
:100700000022384B1A6012E0364B1A68364B9A4278
:1007100003D10022334B1A601DE0334A314B1A607B
:10072000324B013B002BFCD100222E4B1A60304B88
:100730001A68531C0FD02F4B2F490B60043BFF212D
:100740000B4208D182F30888FF2293432B4A93601F
:10075000274B5B681847FFF7EDFE294B294A5A6083
:10076000264A106A0002000AC021090601431162EC
:1007700000229A6007221A60234B80208002986032
:10078000802109059960082288241A5158619961CD
:1007900098215A5062B600F079FE00F091FA041CDC
:1007A0001A4E351C201CA2689047002802D0012355
:1007B000164A13703378002B05D0002000F022FB7E
:1007C00000F090FBFCE72B78002BEBD100F0DAFE79
:1007D0000028E7D0012000F015FB00F083FBFCE7C8
:1007E00000040040FC7F00203581730748E80100C9
:1007F00000200000042000000C02002000ED00E0BA
:1008000010E000E0FFA50E00004400417800002049
:1008100080229202114BDA61114B1B78002B07D01A
:1008200008219C230D4AD15000220D4B1A7003E081
:1008300008219823094AD1500A4B1B78002B07D076
:1008400080221205054BDA610022064B1A7003E084
:1008500080221205014B9A617047C0460044004156
:100860007600002077000020F8B5061C04680823F5
:10087000FF33E15C10220A43E254AD4B1A78AD4DD0
:100880002A705A78AC490A709878AC4A1080178858
:10089000D8780002384310801879A94A1080178848
:1008A00058790002384310809879A64A1080108841
:1008B000DB791B0203431380402282235B00E25456
:1008C0000B782A781B0213439F4A934200D1E7E03A
:1008D00026DC80225200934200D11FE18022520088
:1008E000934209DC812B00D193E0822B00D198E068
:1008F000802B00D0D4E184E081225200934200D1C9
:1009000036E181225200934200DA0CE1C0229200CB
:10091000934200D1BBE08D4A934200D1BCE0BFE1DD
:100920009022120193425BD09022120193420DDC7F
:10093000D022D20093421CD088221201934259D077
:10094000A022D200934200D0AAE13FE0804A934225
:1009500000D18BE104DC7F4A934200D1DEE09FE1CD
:100960007D4A934200D185E17C4A934200D190E1D7
:1009700096E1724B1B881B0A012B0ED13068714B1C
:100980001B889BB21222122B02D86E4B1A8892B28D
:1009900073490023FFF7B4FC86E1684B1B881B0AF0
:1009A000022B0ED13068674B1B889BB24322432B2E
:1009B00002D8644B1A8892B26A490023FFF7A0FC60
:1009C00072E1201C0121FFF743FD6DE1201CFFF7C0
:1009D00053FD5A4B198889B23068FFF771FD63E106
:1009E000564B1B883371201CFFF746FD201CFFF778
:1009F0006DFD59E1311C01C901220023FFF780FC84
:100A000052E1594900230B8030680222FFF778FC3D
:100A10004AE1554900230B8030680222FFF770FC41
:100A200042E10022504B1A80454B19885022114058
:100A30004E4A117019880F220A401A801B889BB2F7
:100A4000032B1FD8494B1B78002B0AD03C4B1B882B
:100A500008335B01E418A2799206D20F424B1A8048
:100A600009E0374B1B8808335B01E418A279D206F2
:100A7000D20F3D4B1A8030683B4902220023FFF71A
:100A80003FFC11E1201C0121FFF7E2FC0CE1201CDE
:100A90000121FFF7DDFC07E1201CFFF7EDFC03E17E
:100AA000274B19887F229143C9B2304A11701988A7
:100AB0000F220A401A80214B1B889BB2002B28D1A1
:100AC0001F4B1B889BB2002B23D01D4B1B889BB256
:100AD000032B1ED8254B1B78002B0BD0184B1B88E3
:100AE00008335B01E3185A7930218A4320210A43F5
:100AF0005A710AE0124B1B8808335B01E3185A79DC
:100B000030218A4310210A435A71201CFFF7B4FC9C
:100B1000CAE0201C0121FFF79BFCC5E0201C01213D
:100B2000FFF796FCC0E0201CFFF7A6FCBCE0C04627
:100B30008C00002083000020790000207A00002033
:100B40007E0000208000002002030000010300005E
:100B500021200000010B0000A12100002122000043
:100B600014190000000000207C00002082000020FA
:100B70004E4B19887F229143C9B24D4A1170198892
:100B80000F220A401A804B4B1B889BB2002B68D166
:100B9000464B1B889BB2002B63D0444B1B889BB2F7
:100BA000032B5ED8424B1B78002B2BD03F4B1B886E
:100BB00008335B01E3189B799A064ED53B4B1A88A4
:100BC00008325201A21811793020814320200143BC
:100BD00011711B8808335B01E318DB795A063CD599
:100BE000324B1A8808325201A218D079602188430A
:100BF00040210143D1711B8808335B01E3180222B5
:100C00001A712AE0294B1B8808335B01E3189B7992
:100C1000DA0622D5254B1A8808325201A21811791A
:100C2000302081431020014311711B8808335B0180
:100C3000E318DB799A0610D51C4B1A88083252014A
:100C4000A218D0796021884320210143D1711B88EB
:100C500008335B01E31801221A71201CFFF70CFC1A
:100C600022E0201C0121FFF7F3FB1DE0201CFFF711
:100C700003FC19E03068104B1B889BB20822082B3C
:100C800002D80D4B1A8892B20C490023FFF738FBAB
:100C90000AE0084B1B887371201CFFF7EDFB03E093
:100CA000201C0121FFF7D4FBF8BDC0467E000020C8
:100CB000820000207A0000208000002044000020F4
:100CC00010B5054C054B2360FFF794FA201C2168F2
:100CD000FFF782FA201C10BD1002002000500041D6
:100CE00000B583B001900122054B1A70054B1868BE
:100CF00001A90123FFF704FB012003B000BDC0469A
:100D0000770000201002002010B582B00122064BAF
:100D10001A70064B18686C460734211CFFF74EFB0F
:100D2000207802B010BDC0467600002010020020DE
:100D300008B50122084B1A700848FFF703FA031C94
:100D40000020002B06D0054B1A684823FF33D05CE7
:100D50000123184008BDC046760000201002002084
:100D600010B5031C0C1C0121054A1170054A1068BE
:100D7000191C221C0123FFF7C3FA201C10BDC0461A
:100D8000770000201002002070B5061C0D1C012405
:100D9000084B1C700848FFF7D5F90023002806D03F
:100DA000054B1868311C2A1CFFF708FB031C181C94
:100DB00070BDC0467600002010020020F8B5051C6A
:100DC0000F1C01220D4B1A700D48FFF7BBF90023D1
:100DD000002810D0002F0BD03C1C094E3068291C75
:100DE000221CFFF7EBFA241A2D18002CF6D101E093
:100DF0003B1C00E03B1C181CF8BDC04676000020E0
:100E000010020020012806D1064A074B1A60012271
:100E1000064B1A7004E0002802D1054A024B1A6002
:100E20007047C04648190000800200208900002059
:100E3000A0190000F0B585B0214B1B78002B2FD0F6
:100E4000042901D1036830E0022901D103882CE094
:100E500003784D0004A842190B3A002D29D10DE06A
:100E6000341C1C40092C02D83C43147001E0373478
:100E700014701B09013A0130A842F1D301A83023B4
:100E8000037078234370013149000A234354451904
:100E90000D23EB700B4B1B680231DB6898470CE0AD
:100EA000084B1B68DB68984707E04D0004A842190F
:100EB0000B3A00200F263027D2E705B0F0BDC04620
:100EC000880000208002002072B6EFF30883044AF5
:100ED0001360036883F30888436818477047C04667
:100EE00084020020F0B55F4656464D464446F0B4B5
:100EF0008DB004A9C14A0B1C31CA31C391CA91C338
:100F0000A0CAA0C3BE4A93685B035B0F9B005B58FB
:100F1000BC490B60926892B2BB490A605343BB491B
:100F20000B60BB4B00221A607A22BA4B1A70BA4887
:100F30008346BA4C01340194B94C5D462B681B6959
:100F4000201C40219847B74B1860B74B1C6000220B
:100F5000B64B1A600028EFD0B34C27683B78FF2BC4
:100F600000D149E2232B00D017E2B14B1B78002BB4
:100F700005D0A94B1B68DB68AE4802219847A54BFA
:100F80001B78532B3ED1A74B1B68A84A126893428B
:100F900021D9A5480168013101600132A3480260EE
:100FA0009A1AA54B1868824202D2A44B1A6001E03B
:100FB000A24B1860964B1868A04D2A6800F08CFC74
:100FC0002B689A4A106819181160974A1568E91831
:100FD00011609B4A1370954B1A68013A1A60924B44
:100FE0001A68013A1A60964B1B78934A11688B4233
:100FF00006D2894A126886480068C91A92699047E1
:10100000C046B9E1522B08D1834B1B68804A106857
:10101000894A11685B699847AEE14F2B05D17C4B3B
:101020001B68854A12681A70A6E1482B05D1784BD7
:101030001B68814A12681A809EE1572B05D1744BB8
:101040001B687D4A12681A6096E16F2B05D1704BC0
:1010500018680121FFF7EEFE8EE1682B08D1764873
:101060006B4B1B681B8803600221FFF7E3FE83E1E3
:10107000772B08D1664B1B681B686F4803600421FF
:10108000FFF7D8FE78E1472B13D16B4B1868FFF7B9
:101090001BFF6C4B1B6883F3088862B66A4B1B7896
:1010A000002B00D168E15C4B1B681B680620984749
:1010B00062E1542B09D101225D4B1A70564B1B681B
:1010C000DB685C480221984756E14E2B0DD1584B06
:1010D0001B78002B05D1504B1B68DB68554802215B
:1010E00098470022524B1A7046E1562B58D14A4D70
:1010F0002B68DB685548012198472B68DB6854480A
:10110000032198472B68534EDB68301C0121984718
:101110002B68DB6850480D2198472B68DB68301C32
:10112000012198470022414B1A603F4B019F1F60ED
:101130003A4D2B78002B00D16CE13C493A4A0B68C0
:1011400001330B601368581C10601B78002BF6D11C
:10115000314E3368354DDB6830482968984733682D
:10116000DB683C480121984700232B603B4A2E4B0B
:101170001A6060E10B6801330B601368581C106043
:101180001B78002BF6D1244D2B68284A1168DB68A8
:10119000334898472B68DB68264802219847EBE0E4
:1011A000582B1FD1244B1868184B1B68984212D239
:1011B000134A2C4FBC460121124E144D4308D361F3
:1011C00063461380137D1942FCD03768BB00C018FA
:1011D0002B689842F2D3104B1B68DB68224803212E
:1011E0009847C9E0592B00D08DE0134B1E68002EA4
:1011F0003ED1074B1A681D4B1A607DE0281900008C
:101200000040004138020020300200202C02002063
:101210007C020020280200208002002074190000B7
:101220003C02002020020020240200203402002082
:101230008800002068190000880200208C0200202D
:101240001C02002084020020890000206C1900008C
:101250006419000070190000BC1900008119000019
:101260008019000002A5FFFF8C19000084000020F7
:10127000B608724B1D68724B1F68724B5A6880210A
:101280008A435A60002E37D0191C01206E4A9246BC
:101290000023994690466D4A0A800B7D1842FCD087
:1012A00053461B68032B16D9002E16D04A464B46D0
:1012B0000097B4462E1CB758009DAF5001334746E7
:1012C0003F68BD08AB420AD204326345F3D1009FA8
:1012D000351C664606E04B4604E04B4602E0009FA4
:1012E000351C66465A4A0A800A7D1042FCD09A0094
:1012F000BF18AD18F61ACED1564B1B68DB6856489E
:101300000321984738E05A2B36D14D4B1F68534B79
:101310001B68002B0CD03D1CFF180026311C2878C0
:1013200000F054F9011C0135BD42F8D1061C00E063
:101330000026484B1B68DB68494801219847311C4F
:101340006B460F336E4607360F252A1C0A400909E3
:10135000101C3030092A00DD07301870013BB34201
:10136000F3D13C4D2B68DB6802A8082198472B6815
:10137000DB683C48032198477A223B4B1A700022D5
:10138000364B1A60394B1B78002B35D0314B1B681C
:10139000DB683748012198472EE01A1C303A092AA9
:1013A00006D82E4A303B156829010B43136023E011
:1013B0001A1C413A052A06D8284A373B17683901D2
:1013C0000B43136018E01A1C613A052A06D8234A19
:1013D000573B106801010B4313600DE02C2B06D125
:1013E0001E4B174A1968116000221A6004E01E4A59
:1013F00013700022194B1A601E4A136801331360E0
:101400001D4A1168013111601C4A1268934200D2D2
:10141000A3E591E50F4E3368164DDB68184829683F
:1014200098473368DB6817480121984700232B60F1
:10143000154A114B1A600F490F4A9BE684000020A1
:101440007C020020004000413802002044A5FFFF3C
:1014500004A5FFFF800200209019000088020020F0
:10146000941900009819000028020020880000202C
:101470009C190000340200202402002020020020D9
:1014800074190000701900008119000010B51E4B7E
:101490004A22995C0120014399543522995C0F241A
:1014A000A14399549C5C0221214399544B215C5CDB
:1014B00020435854985C0F2101409954985C202196
:1014C00001439954114B196A04220A431A62104AC3
:1014D000104B5A801A1C53785BB2002BFBDB0E4872
:1014E0000E49C4229203FEF7DBFD00230C4A137061
:1014F0000C4A13700C4A13700C4A13700C4A137088
:101500000C4A137010BDC046004400410004004066
:1015100014400000000C0040000800422AF60000C1
:10152000900200201A030020910200209402002063
:101530001B0300201803002008B50122034B1A707A
:10154000C1B20348FEF7E2FD012008BD770000208C
:1015500000080042024B187E4007C00F7047C0468B
:101560000008004208B50122044B1A70FFF7F2FF91
:101570000028FBD00248FEF7CFFD08BD7600002012
:101580000008004208B5FFF7E5FF0023002805D05A
:10159000FFF7E8FF031C233B5A425341181C08BDC8
:1015A00070B5041C0E1E06D045182078FFF7C4FF46
:1015B0000134AC42F9D1301C70BDC04610B5041CDA
:1015C000FFF7D0FF2070012010BDC0460B0A584025
:1015D00040000902024BC05A484080B27047C046E2
:1015E000CC190000F0B55F4656464D46E0B4061CE7
:1015F0008946002928D00024002718498A46184A1D
:101600009346FFF7AFFFC5B251460B78002B1DD1B3
:10161000281C391CFFF7DAFF071C5A461388002BD9
:1016200003D1104B1B78002B09D0731C35701E1C86
:101630004946802903D10A490A88013A0A800134BF
:10164000A4B24C45DDD103E0002002E0012000E01F
:10165000381C1CBC91469A46A346F0BD18030020D6
:101660009202002019030020F0B55F4656464D4611
:101670004446F0B483B001908B4600224A4B1A7066
:10168000002903D10122494B1A700CE0484B198004
:101690000022464B1A705A46520604D05B468033ED
:1016A0007F2293439B46404D2C1C0026FFF75AFF98
:1016B0002B78002B0BD02670FFF754FFC0B2237895
:1016C000002B05D00022384B1A70002563E0C0B211
:1016D000432823D071285DD01528E7D11EE00022D1
:1016E000314B1A7057E0FF231840062809D1009BA0
:1016F0000133DBB2009380235B429B44019980312C
:1017000001915A46002A10D10420FFF715FFFFF778
:1017100029FF0022254B1A7001253CE0012300938C
:10172000234988468946214B9A460120FFF704FF4A
:101730000098FFF701FF0099C843C0B2FFF7FCFE15
:10174000019E8025002742461388002B04D1514674
:101750000A780024002A04D03478013B4A461380DA
:101760000136201CFFF7E8FE201C391CFFF72EFF76
:10177000071C013D002DE6D1000AC0B2FFF7DCFED8
:10178000F8B2FFF7D9FEFFF7EDFE074B1B78002BF1
:10179000A9D0A4E70025281C03B03CBC904699467C
:1017A000A246AB46F0BDC046180300201903002036
:1017B00092020020F0B557464E46C0B483B0061CD6
:1017C0000022414B1A70002903D101223F4B1A70AD
:1017D00004E03F4B198000223C4B1A7064253D4FBA
:1017E0004320FFF7A9FE3C1C00E0013CFFF7B2FEDE
:1017F000002802D1002CF8D101E0002C03D1013DDA
:10180000002DEDD159E001242F4D2F1CFFF7AAFE2A
:101810002A78002A04D000222B4B1A7000254CE0B5
:10182000FF230340012B02D0042B39D03BE001A859
:101830000221FFF7D7FE301C8021FFF7D3FE81463F
:101840003B78002B34D1FFF78DFE000280B2824638
:10185000FFF788FE504480B21B4A1378012B27D033
:10186000814509D101AB1B78A34205D1E34301AA0D
:101870005278DBB29A4203D01820FFF75DFE17E0E2
:101880000620FFF759FE104B1B78002B04D00022D6
:101890000D4B1A70002510E0631CDCB28036B5E7F2
:1018A0000620FFF749FE0022084B1A70012504E0CC
:1018B000054B1B78002BF6D0E9E7281C03B00CBCC5
:1018C00091469A46F0BDC046180300201903002037
:1018D0009202002000350C0010B50023934203D083
:1018E000CC5CC4540133F9E710BD031C8218934249
:1018F00002D019700133FAE770470000F8B5C0460E
:10190000F8BC08BC9E467047F8B5C046F8BC08BC99
:101910009E467047120100020200004086280B001C
:10192000000200000001000008000000100000009C
:1019300020000000400000008000000000010000C6
:1019400000020000000400003915000065150000C9
:1019500055150000A1150000BD1500006916000016
:10196000B5170000322E30000A0D0000760000008E
:10197000200000004F6374203230203230313600B6
:1019800031373A30313A353300000000580A0D0043
:10199000590A0D005A000000230A0D003E00000005
:1019A000E10C0000090D0000310D0000610D000088
:1019B000890D0000610D0000BD0D00005B417264E7
:1019C00075696E6F3A58595A5D0000000000211089
:1019D000422063308440A550C660E7700881299199
:1019E0004AA16BB18CC1ADD1CEE1EFF13112100241
:1019F00073325222B5529442F772D66239931883E9
:101A00007BB35AA3BDD39CC3FFF3DEE3622443340C
:101A100020040114E664C774A44485546AA54BB538
:101A200028850995EEE5CFF5ACC58DD553367226E0
:101A300011163006D776F6669556B4465BB77AA788
:101A400019973887DFF7FEE79DD7BCC7C448E5582C
:101A50008668A7784008611802282338CCC9EDD9D8
:101A60008EE9AFF9488969990AA92BB9F55AD44A80
:101A7000B77A966A711A500A333A122AFDDBDCCB28
:101A8000BFFB9EEB799B588B3BBB1AABA66C877C4C
:101A9000E44CC55C222C033C600C411CAEED8FFD78
:101AA000ECCDCDDD2AAD0BBD688D499D977EB66E20
:101AB000D55EF44E133E322E511E700E9FFFBEEFC8
:101AC000DDDFFCCF1BBF3AAF599F788F8891A9818A
:101AD000CAB1EBA10CD12DC14EF16FE18010A10074
:101AE000C230E3200450254046706760B983989364
:101AF000FBA3DAB33DC31CD37FE35EF3B1029012C4
:101B0000F322D2323542145277625672EAB5CBA52F
:101B1000A89589856EF54FE52CD50DC5E234C32413
:101B2000A01481046674476424540544DBA7FAB703
:101B30009987B8975FE77EF71DC73CD7D326F23663
:101B40009106B01657667676154634564CD96DC94F
:101B50000EF92FE9C899E9898AB9ABA944586548B3
:101B600006782768C018E1088238A3287DCB5CDBA3
:101B70003FEB1EFBF98BD89BBBAB9ABB754A545A03
:101B8000376A167AF10AD01AB32A923A2EFD0FED6F
:101B90006CDD4DCDAABD8BADE89DC98D267C076C53
:101BA000645C454CA23C832CE01CC10C1FEF3EFF43
:101BB0005DCF7CDF9BAFBABFD98FF89F176E367EA3
:101BC000554E745E932EB23ED10EF01E0000000002
:101BD00009024300020100803209040000010202F0
:101BE0000000052400100104240200052406000161
:101BF0000524010001070583030800FF0904010013
:101C0000020A0000000705810240000007050202E9
:101C10004000000000C20100000008006900000050
:081C200041000000000000007B
:1020000000800020AD4C0000954C0000954C000075
:1020100000000000000000000000000000000000C0
:10202000000000000000000000000000954C0000CF
:102030000000000000000000954C0000014D000071
:10204000954C0000954C0000954C0000954C00000C
:10205000954C0000954C0000954C0000994C0000F8
:10206000954C0000BD4B0000DD4B0000954C00007E
:10207000954B0000954C0000CD4B0000954C0000A6
:10208000954C0000954C0000954C0000954C0000CC
:1020900000000000954C0000954C0000954C00009D
:1020A000954C0000954C0000954C0000954C0000AC
:1020B0000000000010B5064C2378002B07D1054B1B
:1020C000002B02D0044800E000BF0123237010BDA4
:1020D000FC04002000000000D0D80000044B10B524
:1020E000002B03D00349044800E000BF10BDC046E8
:1020F0000000000000050020D0D8000010B50368E3
:10210000C9B21B68984710BD13B50B2401AB1C70F6
:102110005B3C204358709970DA700199014802F0D5
:1021200041FB13BDC805002013B500246A46D480C6
:102130000C2201AB1A704C3A1043587099700199F7
:10214000014802F02FFB13BDC805002013B5092478
:1021500001AB1C70793C204358709970DA7001997A
:10216000014802F01FFB13BDC805002013B5082469
:1021700001AB1C70883C204358709970DA7001994B
:10218000014802F00FFB13BDC805002007B5054A42
:1021900001AB98701A80D9700199034802F002FBD4
:1021A00007BDC04604F0FFFFC805002007B50021A9
:1021B0006A46D180062201AB1A70F13258709A70CB
:1021C0000199024802F0EEFA07BDC046C80500209A
:1021D00070B50E00B0211500084C0143200004F03A
:1021E00023FF3100200004F01FFF2900200004F02D
:1021F0001BFF200004F09FFE70BDC0461C0900209C
:1022000070B50D00C021064C0143200004F00CFF06
:102210002900200004F008FF200004F08CFE70BDAF
:102220001C09002070B50E0090211500084C0143D8
:10223000200004F0F9FE3100200004F0F5FE290032
:10224000200004F0F1FE200004F075FE70BDC046D1
:102250001C09002070B50E0080211500084C0143B8
:10226000200004F0E1FE3100200004F0DDFE290032
:10227000200004F0D9FE200004F05DFE70BDC046D1
:102280001C09002070B50D0016000A4CC1B22000D8
:1022900002F03CFB290A2000FFF730FFE9B22000E2
:1022A000FFF72CFF3100200002F07EFB200002F03F
:1022B000D8FB70BDE8060020F0B5F1B0D14802F0BF
:1022C0001FFAC6B26FAB6F90002E01D101F050F92A
:1022D000CD49CE485C789D78DF7803F072F80A2209
:1022E0003100CA4803F0AAF8C949C84803F069F8A0
:1022F0000A222100C54803F0A1F8C549C34803F0EC
:1023000060F80A222900C14803F098F8C049BF4884
:1023100003F057F80A223900BC4803F093F80B2E5B
:1023200007D120005030C0B23A002900FFF750FF1B
:10233000C4E7092E07D120007030C0B23A0029004E
:10234000FFF770FFBAE7082E02D120008038F4E7CB
:102350000A2E0AD1AF4E2100300004F065FE29009C
:10236000300004F061FE390007E00D2E07D1A94EC0
:102370002100300004F058FE2900300009E00E2E44
:10238000E8D0022EF3D0032EE4D00F2E04D121008A
:10239000A04804F049FE91E70C2E0ED120004030F9
:1023A000C0B22900FFF72CFFCF2C87D12B1C092DA1
:1023B00000D90923984A137080E7042E21D1002305
:1023C000944E964A21003000137004F02DFE29002F
:1023D000300004F029FE3900300004F025FE2B0007
:1023E000643BDAB20A2A00D968E78D4A15708D4A33
:1023F0001770382253438C4ADB1913600123874A34
:10240000D9E7052EA6D0062E27D1824E2100300016
:1024100004F00AFE2900300004F006FE3900300006
:1024200004F002FE7D4B1D78012D00D046E77E4B67
:10243000220019685020FFF725FFFA2002F0A4FCC3
:10244000784B1978764B1878FFF7A0FE2800FFF735
:10245000ADFE6C4802F08CF930E7072E00D02DE776
:1024600078E79D4301F0EEF81C00042B01D001F049
:10247000D9F801F0EEF8012B06D16C4825934018ED
:102480004078249001F0C2F9022B07D16748401828
:10249000807826900120279001F0B8F9032B07D10E
:1024A00062484018C07828900120299001F0AEF9C8
:1024B000042B07D15D48401800792A9001202B9009
:1024C00001F0A4F9052B07D15848401840792C9009
:1024D00001202D9001F09AF9062B07D1534840189E
:1024E00080792E9001202F9001F090F9072B07D1D1
:1024F0004E484018C07930900120319001F086F9A3
:10250000082B07D149484018007A329001203390B7
:1025100001F07CF9092B07D144484018407A3490E7
:102520000120359001F072F90A2B07D13F4840187D
:10253000807A36900120379001F068F90B2B07D193
:102540003A484018C07A38900120399001F05EF97D
:102550000C2B07D135484018007B3A9001203B9066
:1025600001F054F90D2B07D130484018407B3C90C6
:1025700001203D9001F04AF90E2B07D12B4840185D
:10258000807B3E9001203F9001F040F90F2B07D156
:1025900026484018C07B40900120419001F036F958
:1025A000102B07D121484018007C42900120439015
:1025B00001F02CF9112B07D11C484018407C4490A5
:1025C0000120459001F022F9122B07D1174840183D
:1025D000807C46900120479001F018F9132B07D119
:1025E00012484018C07C48900120499001F00EF933
:1025F000142B1DD10D484018007D4A9001204B90AE
:1026000001F004F9C805002070CF0000F00F002091
:102610007ACF00001C09002028050020C4050020F6
:102620006F05002029050020BC05002007000020C0
:10263000152B07D1D2484018407D4C9001204D9079
:1026400001F0E4F8162B07D1CD484018807D4E905C
:1026500001204F9001F0DAF8172B07D1C848401835
:10266000C07D50900120519001F0D0F8182B07D177
:10267000C3484018007E52900120539001F0C6F8E4
:10268000192B07D1BE484018407E54900120559028
:1026900001F0BCF81A2B07D1B9484018807E56903B
:1026A0000120579001F0B2F81B2B07D1B448401815
:1026B000C07E58900120599001F0A8F81C2B07D13A
:1026C000AF484018007F5A9001205B9001F09EF8BF
:1026D0001D2B07D1AA484018407F5C9001205D90D7
:1026E00001F094F81E2B07D1A5484018807F5E901A
:1026F00001205F9001F08AF81F2B07D1A0484018F5
:10270000C07F60900120619001F080F8202B08D1FB
:102710009B4840180130C07F62900120639001F017
:1027200075F8212B08D1964840180230C07F64907C
:102730000120659001F06AF8222B08D190484018DA
:102740000330C07F66900120679001F05FF8232B73
:1027500008D18B4840180430C07F689001206990F0
:1027600001F054F8242B08D1854840180530C07F6B
:102770006A9001206B9001F049F8252B07D1804A1F
:1027800052180632D27F6C92012201F03FF8262BBC
:1027900008D17B4840180730C07F16900120159063
:1027A00001F034F8272B08D1754840180830C07F55
:1027B00018900120179001F029F8282B08D17048B3
:1027C0004018283000781A900120199001F01EF866
:1027D000292B08D16A48401829300078059001203B
:1027E000049001F013F82A2B08D1654840182A30CC
:1027F000007807900120069001F008F82B2B08D1F3
:102800005F4840182B30007809900120089000F0B4
:10281000FDFF2C2B08D15A4840182C3000780B9023
:1028200001200A9000F0F2FF2D2B08D154484018E7
:102830002D3000780D9001200C9000F0E7FF2E2B3A
:1028400008D14F4840182E3000781C9001200E907F
:1028500000F0DCFF2F2B08D1494840182F300078BA
:102860000F9001201D9000F0D1FF302B08D144487B
:102870004018303000781E900120109000F0C6FF04
:10288000312B08D13E484018313000781F9001208C
:10289000119000F0BBFF322B08D13948401832307C
:1028A000007813900120129000F0B0FF332B08D174
:1028B000334840183330007803900120029000F034
:1028C000A5FF342B07D12E4801254018343000785D
:1028D000209000F09BFF352B07D129480126401896
:1028E00035300078219000F091FF362B07D1244835
:1028F0000127401836300078229000F087FF372BF0
:1029000001D000F083FF6D983730007823900120CC
:10291000844600F07BFF012B01D001F037FA002242
:10292000184B194E1A7001F01EFA012B01D101F05B
:1029300016FA022B0DD10122124B1A70134B197883
:10294000134B187804F0D5FB124EC2B2327001F06E
:102950000BFA032B26D101220F4F104E094B397869
:1029600030781A70FFF7E0FB0D4801F001FF39786D
:102970003078FFF745FC2B78237001F007FAC0464A
:10298000070000204E0500205D05002037020020D2
:10299000590500206B05002062020020530500202D
:1029A000C8050020042B68D10122D54BD54ED64D49
:1029B000D64C1A70297832782078FFF7C7FBD448B4
:1029C00001F0D6FE327829782078FFF72BFC01F051
:1029D000D9F90122CA4BCF4F1A700023CE4ECF49EE
:1029E00030003B7002F0EDFC39780A22300014E030
:1029F000062B01D001F0CAF9C64E3378002B0FD058
:102A00000121BF4A013B1170C34FC44938003370E4
:102A100002F0D7FC0A223800317802F013FDAAE751
:102A20000122B74BBB4F1A700923D7E7002901D009
:102A300001F0ACF9BA4A1278002A9DD0012A00D1DF
:102A40006DE7022A24D1AE4A117095E7012A01D020
:102A500001F09CF9B34A1268002A01D101F073F920
:102A6000012A01D001F092F9AD4A1278002A83D0F0
:102A7000012A00D153E70021E3E7052BB8D1A54E89
:102A80003378092BA5D001219D4A5B181170BBE753
:102A9000032AD8D0042A14D10022994B994E9A4D7A
:102AA0009A4C1A70297832782078FFF75FFB9848A3
:102AB00001F05EFE327829782078FFF7CBFB01F039
:102AC00061F90021052ABED0062A01D001F05EF985
:102AD000B9E7012B01D001F0B2F90022884B924FE7
:102AE0005A7001F09AF9012B01D101F092F9022BF1
:102AF0000DD10122824B5A708C4B59788C4B5878EF
:102B000004F0F7FA8B4FC2B27A7001F087F9032B09
:102B100013D101227A4B884F7C4E5A7079787078A5
:102B2000FFF702FB7A4801F023FE79787078FFF70F
:102B300067FB6B78637001F082F9042B51D101229D
:102B40006F4B704F704E714C5A707A787178607814
:102B5000FFF7FCFA6E4801F00BFE7A787178607826
:102B6000FFF760FB01F068F90122654B694F5A706D
:102B70000023694E714930003B7002F022FC0A22AA
:102B80003000397802F05EFCD3E701225C4B614FE4
:102B90005A700923EDE7002901D001F050F9604A8D
:102BA0005278002AC6D0012A97D0022A3AD1544A34
:102BB0005170BFE7012A01D001F041F9594A52682A
:102BC000002A01D101F019F9012A01D001F037F9E9
:102BD000534A5278002AADD0012A00D17DE7002166
:102BE000E3E7052B11D14B4E3378092BBCD00121E3
:102BF000434A5B185170484F50493800337002F017
:102C0000E0FB31780A223800BCE7062B01D001F046
:102C100016F9404E3378002BB7D00121384A013BDA
:102C20005170E8E7032AC2D0042A14D10022344BA1
:102C3000344F354E354C5A707A7871786078FFF79A
:102C400095FA334801F094FD7A7871786078FFF74F
:102C500001FB01F0F1F80021052AA8D0062A01D0D5
:102C600001F0EDF8A3E7012B01D001F044F90022B7
:102C7000234B2D4E9A7001F02BF9012B01D101F05D
:102C800023F9022B0DD101221D4B9A70274B997805
:102C9000274B987804F02DFA264EC2B2B27001F09C
:102CA00018F9032B13D10122154B234F174E9A709D
:102CB000B978B078FFF738FA154801F059FDB978BE
:102CC000B078FFF79DFAAB78A37001F014F9042BEC
:102CD00000D08AE001220A4B0A4E0B4D0B4C9A7031
:102CE000B278A978A078FFF731FA094801F040FDE1
:102CF000B278A978A078FFF795FA01F0F8F8C04605
:102D00004E0500207C0200205E02002053050020BA
:102D1000C805002028050020F00F002084CF000007
:102D200054020020740500205D05002037020020B9
:102D3000590500206B050020620200208BCF0000A7
:102D40000122CE4BCE4F9A700023CE4ECE4930009A
:102D50003B7002F036FB39780A22300014E0062B73
:102D600001D001F0C8F8C64E3378002B0FD00121F6
:102D7000C24A013B9170C34FC3493800337002F01F
:102D800020FB0A223800317802F05CFB9BE701222D
:102D9000BA4BBB4F9A700923D7E7002901D001F045
:102DA000AAF8BA4A9278002A8ED0012A00D15EE7AA
:102DB000022A25D1B14A917086E7012A01D001F09B
:102DC0009AF8B34A9268002A01D101F071F8012AF9
:102DD00001D001F090F8AD4A9278002A00D173E753
:102DE000012A00D143E70021E2E7052BB7D1A44E29
:102DF0003378092BA4D00121A04A5B189170BAE75F
:102E0000032AD7D0042A14D100229C4BA14EA24DF4
:102E1000A24C9A70B278A978A078FFF7A7F9A048D9
:102E200001F0A6FCB278A978A078FFF713FA01F0B8
:102E30005EF80021052ABDD0062A01D001F05BF81A
:102E4000B8E7012B01D001F0AFF800228B4B954F72
:102E5000DA7001F097F8012B01D101F08FF8022B05
:102E60000DD10122854BDA708F4BD9788F4BD878F2
:102E700004F03FF98E4FC2B2FA7001F084F8032BD0
:102E800013D101227D4B8B4F844EDA70F978F078A4
:102E9000FFF74AF9824801F06BFCF978F078FFF708
:102EA000AFF9EB78E37001F07FF8042B14D1012225
:102EB000724B784F784E794CDA70FA78F178E07886
:102EC000FFF744F9764801F053FCFA78F178E0789E
:102ED000FFF7A8F901F065F8052B15D10121684E1F
:102EE000664A3378674FD170092B0BD05B18724953
:102EF0003800337002F065FA31780A22380002F0A7
:102F0000A1FACEE70023F2E7062B01D001F04CF83E
:102F100001215B4E594A33785A4FD170002B01D0B2
:102F2000013BE4E70923E2E7002901D001F03CF886
:102F3000564AD278002AB5D0012A86D0022A46D134
:102F40004E4AD170AEE7012A01D001F02DF8504A67
:102F5000D268002A2DD14D4AD278002A01D101F041
:102F600007F8012A01D101F009F8022A00D178E717
:102F7000032A86D0042A9AD0052A0BD1012540497C
:102F80003E480A78C570092A02D052190A7089E7AA
:102F90000022FBE7062A01D001F006F80125384996
:102FA00036480A78C570002A01D0013AEEE70922B6
:102FB000ECE7012A01D000F0F7FF344AD278002A6A
:102FC00000D16FE7012A00D13FE70021B6E7032ACD
:102FD000B6D0042A14D10022284B2E4F2E4E2F4C4F
:102FE000DA70FA78F178E078FFF7C0F82C4801F051
:102FF000BFFBFA78F178E078FFF72CF900F0D1FF09
:103000000021052A9CD0062A01D000F0CDFF97E7C9
:103010002000290005F096FC01F001F8012B01D0F9
:1030200001F015F8F42804D80023F422009301F0ED
:1030300009F8BE220300FF32F53B934206D80A236B
:103040001E4A0093F521002300F0FEFF1C4BC3181D
:10305000CF2B06D827231B4A00931B491C3B00F0AB
:10306000F3FF1A4BC318592B34D84023F72200938F
:103070009200183B164900F0E7FFC0464E050020BD
:1030800028050020F00F002092CF000054020020FD
:10309000740500207C0200205E0200205305002001
:1030A000C80500205D0500203702002059050020DA
:1030B0006B0500206202002099CF0000B2020000E0
:1030C0004DFDFFFF82030000B30200007DFCFFFF07
:1030D00083030000B54BC3180A2B06D85B23B44A00
:1030E0000093B4491A3B00F0AFFFB34BC318052B54
:1030F00007D87223FA210093B04A143B890000F0EC
:10310000A3FFAE4B984201DC00F0A1FFAC4B1A6864
:10311000824201DA00F09BFF7F23AA490093143B0F
:1031200000F092FF012D35D1A74DA84E2A793379B1
:10313000002100927F2203F0E6FF3779B84212DBCC
:103140002B7920787F22009300213B0003F0DBFFE6
:103150002F79B84207DC337920787F22009700214D
:1031600003F0D1FF07002A7931791300009138006C
:1031700003F0C9FF964B974C1B78C2B22270012B0B
:1031800008D1954FC0B23B78C01A0A30142801D834
:1031900000F0D6FF914B9C78012C00D0A9E001F003
:1031A000BDFD8F4B9B6898420DD9894B1C708D4B90
:1031B0001A78012A0BD0824A8B49116018218B4A58
:1031C00011601C7003E0834B1A78834B1A7005243E
:1031D000874B0F205D6901F061FF013C844B2D1886
:1031E000E4B25D61002CF3D1824B586805F044FFD6
:1031F000814A824B05F034F906000F0028000521B2
:1032000004F0C0F805F038FF7D4A7E4B05F028F940
:1032100002000B003000390004F0FCF9002200230A
:1032200004000D0004F0CEF90022774B00286BD08B
:103230002000290004F0EEF905F0E8FE734D6D4E14
:103240006B687060634C83420ED0714B5B78002BCF
:103250005FD17F2200925A4A52686449496803F05C
:1032600052FF607073686B605B4B60785B78834281
:1032700000D119E1674B5D79002D00D0DEE0524F9F
:10328000524E7A797379290000927F2203F03BFF36
:103290007279904212DB7B796078290000931300E9
:1032A0007F2203F030FF7A79904207DC73796078EF
:1032B000290000927F2203F026FFC2B2444B6270C5
:1032C0005B78012B00D0EFE0434D6B78D31A0A33C3
:1032D000142B00D9E8E0504F504E79797079FEF701
:1032E00013FF627879797079FEF772FF63786B70FB
:1032F000DAE0002C00D06AE7354B1C70394B1A78A5
:10330000002A00D163E75CE72000290005F01AFBE2
:1033100092E7012BA6D1F42803D80023F4220093CE
:103320009BE7BE220300FF32F53B934205D80A23F8
:103330003B4A0093F521002391E73A4BC318CF2B6A
:1033400005D82723384A009338491C3B87E7384B78
:10335000C318592B06D84023F72200939200183B3C
:1033600034497CE7114BC3180A2B05D85B23104A5C
:10337000009310491A3B72E70F4BC318052B06D870
:103380007223FA2100930D4A143B890067E70B4B27
:10339000984200DC66E70A4B5A68824200DA61E72D
:1033A0007F23254900930A3B59E7C04623FCFFFFD2
:1033B000E7030000DD03000018FCFFFFED03000041
:1033C0003C020020E9030000440200205D050020CB
:1033D000C0050020420500204405002063050020B0
:1033E0002C050020C2050020F30300004C02002041
:1033F0007405002018050020666666666666EE3F66
:103400009A9999999999A93F0000E03F20050020D9
:1034100080020020540200200100002053050020FB
:10342000B20200004DFDFFFF82030000B302000066
:103430007DFCFFFF83030000EE030000012D33D16C
:103440003D4D3E4E6A797379002100927F2203F050
:103450005AFE7779B84212DB6B7960787F2200934D
:1034600000213B0003F04FFE6F79B84207DC73790F
:1034700060787F220097002103F045FE07006A79FB
:10348000717913000091380003F03DFE2C4BC2B25D
:1034900062705B78012B07D12A4DC0B26B78C01ADD
:1034A0000A30142800D816E7274BDD78012D2DD1DE
:1034B00001F034FC254BDB6898420DD9204B5D7040
:1034C000234B5A78012A0AD0224A234951601821F5
:1034D000224A51605D7002E062781A4B5A70204BAC
:1034E0001C78002C1BD121000E2001F06DFE1D4B1D
:1034F0001D4A1B78D35C22000221132001F014FF27
:1035000001210E2001F060FE71B0F0BD002DE6D16A
:103510000B4B5D700E4B5A78002AE0D0DAE7012C95
:10352000F2D100210E2001F04FFE0E4B0F4A1B7806
:10353000D35C0022E0E7C046440200205D05002085
:10354000C005002044050020630500202C05002054
:10355000C20500203C020020F30300004C020020C2
:10356000520500202805002066020020710200207C
:10357000052001F055FEE74BC0B21870E64B1A78F3
:10358000824202D0E54A187010700A2001F048FE0D
:10359000E34D28700C2001F043FE6870062001F016
:1035A0003FFEA870072001F03BFEDE4C2B7822780E
:1035B000E8709A4209D0237001F0B0FBDA4BF53085
:1035C000FF3018600A2001F0DFFB6B7862789A42C6
:1035D00009D0637001F0A2FBD34BF530FF30586087
:1035E0000A2001F0D1FBAB78A2789A4209D0A370EF
:1035F00001F094FBCC4BF530FF3098600A2001F0CD
:10360000C3FBEB78E2789A4209D0E37001F086FBC5
:10361000C54BF530FF30D8600A2001F0B5FB00241F
:1036200001262500C14BA200D05801F0F9FDC04B86
:10363000C0B2E0543300A340DBB2002801D1FEF752
:1036400010FF1D43631C032C01D0FEF70DFFB94B87
:103650001D70B84CB84E23783278B84D9A420CD0D1
:10366000B74FB84938002B7001F0ABFE21780A2221
:10367000380001F0E7FE23783370B34B2C781B78C9
:10368000A34200D104E3B14B9A7826925A7824924F
:103690001A7814925A792C921A792A92DB78289304
:1036A000AB4B9A7832925A7830921A782E925A7995
:1036B00038921A793692DB783493A64B9A783E92F8
:1036C0005A783C921A783A925A7944921A794292EC
:1036D000DB78A14A409313784A93A04B59781B7822
:1036E00048914693D378509393784E9353784C9364
:1036F0009B4B197856915179549112795292DA78FC
:103700005C929A785A925A785892964A11786291B5
:10371000597960911B795E93D37868939378669317
:1037200053786493904B9A7816925A786C921A78E0
:103730006A928E4A5178059111781A91DB78189324
:103740008B4B19780B91D178099192780792DA789E
:103750000F929A781C925B78864A0D939378139314
:1037600053781F9313781E93834B597821911978BE
:103770002091D27838210392DA7861432392002293
:103780009B781500229316001700944613006B9245
:10379000699267926592639261925F925D925B9289
:1037A000599257925592539251924F924D924B92F9
:1037B000499247924592439241923F923D923B9269
:1037C000399237923592339231922F922D922B92D9
:1037D0002992279225921B92159217921992674867
:1037E00004924018069208920A920C920E921D9230
:1037F00010921192129202926D90002B01D0FEF75E
:103800003AFE5E48085C149001201B900133DBB245
:10381000382BF2D16346002B05D069468C2009185D
:10382000554B0978D970002F05D0694688200918B2
:10383000514B09789970002E05D0694684200918EB
:103840004D4B09785970002D05D069468020091824
:10385000494B09781970029B002B03D06946454BF0
:10386000097BD970129B002B05D069464C200918A2
:10387000404B09789970119B002B05D069467C203C
:1038800009183C4B09785970109B002B05D06946EC
:1038900078200918374B097819701D9B002B05D02B
:1038A00069463C200918324B0978D9700E9B002BD1
:1038B00005D06946702009182D4B097899700C9B2A
:1038C000002B05D0694634200918294B0978597016
:1038D0000A9B002B05D069462C200918244B097837
:1038E0001970089B002B05D06946242009181F4B2E
:1038F0000978D970069B002B03D069461B4B097FC2
:103900009970049B002B3BD06946184B097D597078
:1039100036E0C046700500207105002052050020E9
:1039200063050020670500202C05002050CF000013
:103930003E0500203C0500203D0500202805002014
:10394000F00F00207DCF0000000000205402002076
:1039500053050020010000205D05002080020020AA
:103960004402002059050020370200206202002096
:103970005E0200207C0200205A0200200700002086
:10398000199B002B05D0694668200918D24B09788D
:103990001970179B002B05D0694660200918CF4B82
:1039A0000978D970159B002B05D069465820091855
:1039B000CA4B097899701B9B002B05D06946502093
:1039C0000918C74B09781970259B002B05D069464B
:1039D00090200918C24B09785970279B002B05D0FD
:1039E000694698200918BE4B09789970299B002BCD
:1039F00005D06946A0200918B94B0978D9702B9BCE
:103A0000002B05D06946A8200918B54B0978197113
:103A10002D9B002B05D06946B0200918B04B0978C2
:103A200059712F9B002B05D06946B8200918AD4B62
:103A300009781970319B002B05D06946C020091800
:103A4000A84B09785970339B002B05D06946C820D4
:103A50000918A44B09789970359B002B05D069464D
:103A6000D02009189F4B0978D970379B002B05D0BF
:103A70006946D82009189B4B09781971399B002B8E
:103A800005D06946E0200918964B097859713B9B8F
:103A9000002B05D06946E8200918934B0978197066
:103AA0003D9B002B05D06946F02009188E4B097804
:103AB00059703F9B002B05D06946F82009188A4BA6
:103AC00009789970419B002B05D069460131FF317F
:103AD000854B0978D970439B002B06D0842069461A
:103AE00040000918804B09781971459B002B06D0BE
:103AF00088206946400009187B4B09785971479B1B
:103B0000002B06D08C20694640000918774B0978B5
:103B10001970499B002B06D0902069464000091877
:103B2000724B097859704B9B002B06D09420694644
:103B3000400009186E4B097819704D9B002B06D078
:103B40009820694640000918694B097859704F9BC5
:103B5000002B06D09C20694640000918644B097868
:103B60009970519B002B06D0A0206946400009188F
:103B70005F4B0978D970539B002B06D0A42069466F
:103B8000400009185A4B09781971559B002B06D033
:103B9000A820694640000918554B09785971579B70
:103BA000002B06D0AC20694640000918514B09781B
:103BB0001970599B002B06D0B020694640000918A7
:103BC0004C4B097859705B9B002B06D0B42069469A
:103BD00040000918474B097899705D9B002B06D06F
:103BE000B820694640000918424B0978D9705F9B9C
:103BF000002B06D0BC206946400009183D4B0978CF
:103C00001971619B002B06D0C0206946400009183D
:103C1000384B09785971639B002B06D0C420694644
:103C200040000918344B09781970659B002B06D0A9
:103C3000C8206946400009182F4B09785970679BC6
:103C4000002B06D0CC206946400009182A4B097881
:103C50009970699B002B06D0D02069464000091856
:103C6000254B0978D9706B9B002B06D0D420694670
:103C700040000918194B09781970002A06D0D8217C
:103C80006A4649005218154B12785A701B4B1C702B
:103C90001B4B1B78012B00D0D1E00B2001F0C0FAA8
:103CA000184B186001F03AF8174B1B6802939842C2
:103CB0006CD3164D134B2A681B68154C0293934224
:103CC0002AD001F02BF80F4B124A1B680A302060F3
:103CD00013702B6020E0C0466202002037020020F3
:103CE0005402002053050020010000208002002023
:103CF0005D0500204402002059050020000000203E
:103D000063050020740500202C0500208C05002090
:103D1000A40500204605002001F000F82368984221
:103D200034D3E94DE94C2B7822789A422ED0E84AD8
:103D30001278002A01D0FEF789FEE64A11680129AF
:103D400001D0FEF773FEE44B1B78002B01D0FEF789
:103D5000ECFDE24B1B78002B01D0FEF7DCFD0122CD
:103D6000DE4BDF4E1A703278DE4DDF4C297820783A
:103D7000FEF7CAF9DD4800F0FBFC3278297820789C
:103D8000FEF726FAD04B1A78D04B1A70D84B1B7816
:103D9000012B54D1122001F043FACE4B586000F0B1
:103DA000BDFFD44B1B68984249D3D34DC94B6A68B9
:103DB0005B68D24C0293934208D000F0AFFFC54B32
:103DC000C14A5B680A30606053706B6000F0A6FF08
:103DD0006368984233D3BC4DBC4C6B7862789A428E
:103DE0002DD0BB4A5278002A01D0FEF7E3FEB94A33
:103DF0005168012901D0FEF7CEFEB74B5B78002B4E
:103E000001D0FEF770FEB54B5B78002B01D0FEF7BA
:103E100060FE0122B14BB24F5A707A78B14EB24C6B
:103E200071786078FEF770F9B04800F0A1FC7A78FC
:103E300071786078FEF7CCF96A78A44B5A70AC4B75
:103E40005B78012B00D0AFE00D2001F0E9F9A14B28
:103E5000986000F063FFA74B5B68029398424AD3D7
:103E6000A54D9C4BAA689B68A44C0293934208D032
:103E700000F054FF974B944A9B680A30A0609370FF
:103E8000AB6000F04BFFA368984234D38E4D8F4C4B
:103E9000AB78A2789A422ED08D4A9278002A01D02F
:103EA000FEF78BFF8B4A9168012901D0FEF775FF61
:103EB000894B9B78002B01D0FEF7DFFE874B9B7868
:103EC000002B01D0FEF7CFFE0122844B844E9A7066
:103ED000B278844D844CA978A078FEF715F9834810
:103EE00000F046FCB278A978A078FEF771F9764B1D
:103EF0009A78764B9A707E4B5B78012B54D11120C7
:103F000001F08EF9734BD86000F008FF794B5B68C5
:103F1000984249D3784D6F4BEA68DB68774C02933F
:103F2000934208D000F0FAFE6A4B674ADB680A3019
:103F3000E060D370EB6000F0F1FEE368984233D3A9
:103F4000614D624CEB78E2789A422DD0604AD2788B
:103F5000002A01D0FEF7F7FF5E4AD168012901D09F
:103F6000FEF7E2FF5C4BDB78002B01D0FEF773FF1E
:103F70005A4BDB78002B01D0FEF763FF0122574B31
:103F8000574FDA70FA78574E574CF178E078FEF7D1
:103F9000BBF8564800F0ECFBFA78F178E078FEF7D1
:103FA00017F9EA78494BDA7000230524494A13616E
:103FB0005361484B10201E6901F070F8013C454BDD
:103FC0003618E4B21E61002CF3D14D4B186805F091
:103FD00053F84C4A4C4B04F043FA04000D003000F7
:103FE000052103F0CFF905F047F8484A484B04F0A3
:103FF00037FA02000B002000290003F00BFB00221F
:10400000002304000D0003F0DDFA0022414B0028DC
:1040100001D1FEF7FDFF2000290003F0FBFA04F0B8
:10402000F5FF374B3C4D18602B683C4C834212D057
:104030003B4B1B78002B01D0FEF7F0FF7F22009254
:10404000384A12683849096803F05DF820702C4B33
:104050001B6802932B60354B20781B78834201D17B
:10406000FFF798F81C4B1D79002D01D0FFF75AF887
:104070001B4E2F4F32793B79290000927F2203F0AB
:1040800042F83A79904212DB337920782900009384
:1040900013007F2203F037F83279904207DC3B7936
:1040A0002078290000927F2203F02DF8C2B2214B24
:1040B0001A4C1B782270012B01D0FFF76BF81B4FB5
:1040C0003B78D31A0A3337E0460500204A05002022
:1040D0005A02002074050020540200204E050020E2
:1040E000440200200100002053050020C8050020E4
:1040F000630500202C0500208C050020A40500206D
:1041000018050020666666666666EE3F9A9999997C
:104110009999A93F0000E03F2005002042050020BA
:10412000800200203C0200204C02002044050020B8
:104130005D050020C0050020142B01D9FFF72AF8E7
:10414000074E084D31792879FDF7DEFF2278317965
:104150002879FEF73DF823783B70FFF71BF8C0463F
:10416000010000205305002070B50E000E4CC5B2B2
:104170002900200000F0CAFB310A2000FDF7BEFF35
:10418000F1B22000FDF7BAFF200000F06AFC290020
:104190000122200000F003FC200000F05DFB200065
:1041A00000F064FCC0B270BDE8060020F8B5002441
:1041B000C54B0021E05800F0D7FFC44B0021E05868
:1041C000043400F0D1FF102CF2D102210B2000F0BA
:1041D000CBFF0221122000F0C7FF02210D2000F0CA
:1041E000C3FF0221112000F0BFFF0221052000F0D3
:1041F000BBFF0121132000F0B7FF0121022000F0D6
:10420000B3FF01210E2000F0AFFF642000F0BCFDE1
:1042100000210E2000F0D8FFAD4C002223780221AF
:10422000132001F081F801210E2000F0CDFF0021C4
:104230000E2000F0C9FFA37A00220221132001F012
:1042400073F801210E2000F0BFFFA249A24802F03E
:104250001FFDE121A148490201F022FCA04800F025
:1042600035FBFA20800000F08FFDD0260025502479
:1042700029002000FFF778FF030605D4290020005D
:10428000FFF772FF974B58552F000520383700F085
:104290007BFD39002000FFF767FF030605D43900D6
:1042A0002000FFF761FF8F4BD8552F000520703796
:1042B00000F06AFD39002000FFF756FF030605D421
:1042C00039002000FFF750FF864BD8552F000520FE
:1042D000A83700F059FD39002000FFF745FF03061D
:1042E00005D439002000FFF73FFF7E4BD8552F0043
:1042F0000520E03700F048FD39002000FFF734FFCB
:10430000030605D439002000FFF72EFF754BD85562
:104310002F0019370520FF3700F036FD3900200047
:10432000FFF722FF030605D439002000FFF71CFF2A
:104330006C4BD8552F0051370520FF3700F024FD76
:1043400039002000FFF710FF030605D439002000D4
:10435000FFF70AFF634BD8552F0089370520FF3739
:1043600000F012FD39002000FFF7FEFE030605D421
:1043700039002000FFF7F8FE5A4BD8552F00C137FF
:104380000520FF3700F000FD39002000FFF7ECFEAC
:10439000030605D439002000FFF7E6FE514BD8553F
:1043A0002F00F9370520FF3700F0EEFC3900200020
:1043B000FFF7DAFE030605D439002000FFF7D4FE2C
:1043C000484BD855052000F0DFFC072D0DD8002103
:1043D0000E2000F0F9FE022113200123002200F03C
:1043E000A3FF01210E2000F0EFFE33002833DBB2E3
:1043F000072B0DD800210E2000F0E6FE022313202B
:104400001900002200F090FF01210E2000F0DCFED8
:1044100033002033DBB2072B0DD800210E2000F033
:10442000D3FE022113200423002200F07DFF01218E
:104430000E2000F0C9FE33001833DBB2072B0DD875
:1044400000210E2000F0C0FE0221132008230022CC
:1044500000F06AFF01210E2000F0B6FE3300103399
:10446000DBB2072B0DD800210E2000F0ADFE02219B
:1044700013202023002200F057FF01210E2000F01E
:10448000A3FE33000833DBB2072B14D800210E2023
:1044900000F09AFE102302211320002200F044FFB6
:1044A00001210E2000F090FE0136F6B20135082EF3
:1044B00000D0DDE6F8BD072EF6D800210E2000F072
:1044C00083FE8023E7E7C04660CF000050CF0000A6
:1044D00066020020127A00001C090020F00F002064
:1044E000E8060020070000200020704700207047E9
:1044F00000207047F0B50A250B789DB002330B7091
:1045000002ABED185C4F03AC01905A220021280049
:1045100004F07DFE2781678381277F00E7830327DF
:10452000564B802623800123BC46EB7776008025FE
:10453000A682664602AF05376D00FE77E584072642
:104540004125092104AFFE77258502AE133D8F1961
:10455000AD1906262E702F252420022202AEAD1999
:1045600028700EAD2A703125AD192B703225AD198A
:104570002B70434DF8770F9510AD2A70414D812770
:10458000E5860425FF352587658743257F00AD191E
:10459000E270237163716373A3736174A074E37435
:1045A000E1822376A787297013AD287065462130F4
:1045B0008019057046208019027047200425801953
:1045C000057014A803704920801903704A202E4DED
:1045D0008019037015A805804F20801940265525A5
:1045E000027016A8068002AF0520ED195627287024
:1045F00002AD7F1925253D70572702AD7F193B700D
:1046000018AF3B7059277F193B705A277F193970B3
:104610005231491908705D2149190A705C325219EA
:10462000168063222521521910701BAA1170652271
:1046300052191370662252191370624666335B1961
:104640001A704E22019B52191B792100A370A3728C
:104650000133DBB263762377019B5B791370802291
:1046600001335242134319AA13700848642202F01E
:10467000C5F81DB0F0BDC04609040000080B0000DD
:104680000624020209240000090500001810002079
:1046900010B5042408002200024904F0AFFD2000F8
:1046A00010BDC046A0CF0000134BF0B5FC335C68D2
:1046B0003F23060085B001341C4001930E4DFC35AC
:1046C000AB68A34216D00D4F7179380001F0DCFEC3
:1046D0007179042303AA380001F06AFF032809DD79
:1046E0006B68054A03999B009950019B6C600134EB
:1046F0001C40E3E705B0F0BDE005002018100020E5
:1047000073B5194C06002500FC356B68AA689B1A26
:104710009B061BD0AA6892001219137850789178E2
:10472000D278FC346668A568AE4204D03F26A568FE
:1047300001353540A560FF24204023402140000280
:104740000904184312060843104376BD417907480F
:1047500001F09AFE002803D03000FFF7A5FFD9E74B
:10476000020001000300DCE7E00500201810002033
:1047700010B5417902480131C9B201F09BFE10BD6C
:104780001810002010B50C00407913000130C1B2A0
:104790002200034801F086FF002800DC002010BD45
:1047A000181000200A0030B50B000C0085B00191F4
:1047B0000D1C120C03A98A701B0E240A04220D7012
:1047C0004C70CB70FFF7DEFF05B030BD0B4B10B562
:1047D000C3800300103383600023C360084B0400D0
:1047E00008330360022303618033436101F0E0F981
:1047F000210001F0B1F9200010BDC0460202000006
:10480000A8CF000010B50248FFF7E0FF10BDC0467A
:10481000C805002000207047F8B505000E001700FD
:104820000024BC4208D02B68315D1B6828009847E3
:10483000002801D00134F4E72000F8BD70470300E0
:10484000FC33196ADA69914203D01B6AC018007EF2
:10485000704701204042FBE70300FC33D8691B6A24
:10486000C01A01D50130FF3070470000F7B5019341
:10487000FA238026002504009B008360124B7600FB
:1048800008330F00456029000092036032001830A1
:1048900004F0BDFC23002000FC332130DD61320038
:1048A0001D622900FF3004F0B2FC87239B00E3184F
:1048B0005D609D606B461B78276123756B461B7995
:1048C000A57520006375FEBDC4CF000070B506005D
:1048D00018250C49006901F00FF8306900F094FECA
:1048E0002B000821307D084C4343E318595600F053
:1048F000B9FC0821707D45436419615600F0B2FC93
:1049000070BDC046A0860100E8CF00008A230022C7
:104910009B00C1540C3BC3185A609A6001238375F5
:104920007047020010B5FC32536894680133DBB263
:104930009C4202D054680155536010BDF7B5002465
:104940000500170001932000A24227D02B00FC3362
:10495000DC611C620122286900F094FEA0421CD098
:104960002E001836286900F00DFF013401003000D8
:10497000FFF7D7FF2869A74206D000F063FE0221A7
:10498000286900F069FEEDE700F053FE019B002B63
:1049900003D00321286900F05FFEE0B2FEBD10B530
:1049A0000123FFF7CBFF10BD002210B5837D93429A
:1049B0000DD087239B00C4186368A4680133DBB261
:1049C000A34204D02130FF30FFF7ABFF01221000DB
:1049D00010BD0300FC3399685A68914206D09A686A
:1049E000805C9A680132D2B29A60704701204042DE
:1049F000FBE700228A2370B59B00827505000E003C
:104A0000C15C006900F03EFE002806D10321286940
:104A100000F022FE0224200070BD872328009B00A6
:104A2000EA18536894682130FF301C1B01D501340B
:104A3000FF34002C0ED02C69FFF7CBFFC1B2200051
:104A400000F05EFE0028E8D10321286900F004FE92
:104A50000324E0E7002EDED00321286900F0FCFDEE
:104A6000D9E710B50121FFF7C4FF10BD10B518300C
:104A7000FFF7AFFF10BD70B50400006900F060FEE5
:104A8000002814D0206900F069FE002810D02069A9
:104A900000F0D8FD0321206900F0DEFD8C239B008F
:104AA000E558002D39D10023FC34E361236270BD49
:104AB000206900F05DFE002809D0206900F053FE57
:104AC000002804D0206900F058FE0028DFD02069BB
:104AD00000F04EFE002826D1206900F03AFE0028A2
:104AE000E5D0206900F049FE002837D087239B00DD
:104AF000E218536892689B1A01D50133FF33FF21F6
:104B0000002B05D020002130FF30FFF762FFC1B23B
:104B1000206900F007FEA075C9E7236820001B6923
:104B20009847A847BFE7206900F08CFD2069032162
:104B300000F092FD206900F020FE0028B7D0872306
:104B400000229B00E3185A609A600123A3758B230F
:104B50009B00E3589342AAD09847A8E72200FC3272
:104B6000D369126A0133DBB22069934206D100F0A7
:104B700060FD0321206900F06FFD98E700F002FE60
:104B8000010020001830FFF7CCFE206900F05AFD2C
:104B9000EFE7000010B50248FFF76DFF10BDC046FB
:104BA000E806002010B51523142202490248FFF739
:104BB0005DFE10BDDC0F0020E806002010B50248A5
:104BC00002F0CBF910BDC0461C09002010B5024808
:104BD00002F0C3F910BDC046580B002010B50248C2
:104BE00002F0BBF910BDC046940D0020F7B50124BA
:104BF0000325194F1949380000F070FC184919486D
:104C000000F06CFC1849194800F068FC1849194874
:104C100000F064FC1849194800F060FC184E19496E
:104C2000300000F05BFC3900009523000194002265
:104C3000154802F001F93100009501941E231F224E
:104C4000124802F0F9F8009501942C232D22054911
:104C50000F4802F0F1F8F7BDD00F00200008004225
:104C6000000C0042D40F002000100042D80F00209A
:104C700000140042DC0F002000180042E00F00206A
:104C8000E40F0020001C00421C090020580B0020EB
:104C9000940D0020FEE70000034B10B51B68002BAD
:104CA00000D0984710BDC046E80F002070B50F49EE
:104CB0000F4CA14204D100F08DF802F045FAFEE756
:104CC0000C4D00238D42F6D0CA18E818A24205D335
:104CD000094B8242EFD00949002204E00068043306
:104CE0001060F1E704C38B42FCD3E4E7000000202E
:104CF000FC040020D4D80000FC040020E4150020AF
:104D000010B500F064F8002801D100F055F810BD8E
:104D1000014B18607047C046E80F0020014B18682F
:104D20007047C046EC0F0020F7B5134801228446B7
:104D30001249134C8E68636805689B0E13400192FC
:104D400088686268019F920E3A4067463F689342C6
:104D50000ED1BD420CD186420AD35B19FA254868B0
:104D6000AD00861B07486B437043000DC018FEBDA5
:104D70003D0013000600E3E7EC0F002010E000E028
:104D800000ED00E05555000070B5041E10D0FFF78F
:104D9000CBFF050000F01AF8FFF7C6FF054B401BDC
:104DA0009842F7D9FA23013C9B00ED18002CF3D16F
:104DB00070BDC046E703000010B5034A1368013315
:104DC000136000F057FB10BDEC0F0020704700206F
:104DD000704700001E2270B5464847494368934318
:104DE0001C3A1343436008238C6923438B61434C73
:104DF000434B9C829C8A14439C82DC681442FCD006
:104E00000124404A14701578254203D055786DB2BC
:104E1000002DF8DB01249460547864B2002CFBDB95
:104E2000394C5460547864B2002CFBDB8224E401DA
:104E30005480547864B2002CFBDB02249C840E3432
:104E4000DD682542FCD0314CDC621024DD6825424F
:104E5000FCD09D8C2E4C2C439C841024DD68254274
:104E6000FCD002249D8C80262C439C844024DD6849
:104E70003542FCD0DD682542F9D01024DD6825429A
:104E8000FCD000249460547864B2002CFBDB214CED
:104E90005460547864B2002CFBDB1C6A1E4D2C401D
:104EA00080251C621C6AAC431C62032393601B4B6D
:104EB000536053785BB2002BFBDB0023FF240B72A3
:104EC000174A4B728B72CB72164B1A60164B174AED
:104ED0001B6811689A065B01C90E2340520F12022B
:104EE0000B431343124A13858023426813434360E4
:104EF00070BDC04600400041000400400C060000A8
:104F000000080040000C004001050100B905FF7DCC
:104F1000040A000000070300FFFCFFFF0306010076
:104F2000006CDC028402002024608000206080008D
:104F300000400042FA212D4B10B51868890002F09C
:104F400097F92B4B013898424FD82A492A4A486092
:104F5000C020136A00061B021B0A034313620023CE
:104F60008B6007330B608021136A09061B021B0A42
:104F70000B431362FC22214B196A0A431A62FF2277
:104F8000196A12020A431A62A022196AD2020A435B
:104F90001A621B4B1C005A7852B2002AFBDB194ADA
:104FA0005A80194B1A00597EC9090129FBD0C82122
:104FB000890099800521D970537EDB09012BFBD034
:104FC000C02300205B011361907000F023F8637828
:104FD0005BB2002BFBDB0D4B0D4A6380D379DB0901
:104FE000012BFBD04123537010BDFEE7840200204B
:104FF000FFFFFF0010E000E000ED00E000040040D3
:10500000000C00401E400000004000422140000013
:10501000004800421F4900B50B004A7ED209012A10
:10502000FBD001380A282FD802F018F91B2E2E2E9B
:105030002E2E062E2E2411001A6917490A400F2120
:105040001A615A788A43110001220A4310E01A6952
:1050500011490A400F211A615A788A43110003222C
:10506000F3E71A690C490A400F211A615A788A43FA
:105070005A7000BD1A6908490A400F211A615A780E
:105080008A4311000222E0E7F022196912050A435F
:10509000F3E7C04600400042FFFFFFF010B50400F8
:1050A000052800D80E340121200000F0DBF80E2C7A
:1050B0000DD1284B1900DA79D209012AFBD0022040
:1050C0001A7882431A70CB79DB09012BFBD0224975
:1050D0000B004A7ED209012AFBD0182262431F4CE2
:1050E000A418207C1F240A692040A24302430A61BD
:1050F0005A7ED209012AFBD0022219780A431A707B
:105100005A7ED209012AFBD00222197B0A431A7364
:1051100001221A765A7ED209012AFBD00222197B7B
:105120000A431A731A7ED207FCD5588B80B25A7E76
:10513000D209012AFBD002211A788A431A705A7EBA
:10514000D209012AFBD0064B1A68064B196800F0F9
:105150007FF810BD0048004200400042E8CF000048
:105160008C02002088020020182310B50824434335
:10517000134AD0180457013412D001249A564368B8
:105180009C4003290CD808000E49D2015218D318AC
:10519000403302F063F80210060B022119705460CC
:1051A00010BD0621197054609461F9E70621197049
:1051B00054605461F4E7022119709460F0E7C0462E
:1051C000E8CF0000004400411823F0B508245843FC
:1051D000114A13181C5701341BD0012635005F6893
:1051E0008356BD400D4ADB019A18906805420BD1E9
:1051F0000C00601E8441D2194032107834400336CE
:10520000A400B04320431070044A9B18002901D128
:105210005D61F0BD9D61FCE7E8CF00000044004106
:10522000182310B50824434307490020CA1814570F
:10523000013408D05B560549DB015B18186A5368D6
:10524000D8400123184010BDE8CF000000440041C1
:10525000914202D002D98A1AD0407047521A904027
:10526000FBE700001822424370B52D4E0300B21830
:10527000127A52B2140001320ED0481C00240C28BD
:105280000AD801F0EBFF071F1F1F1F1F1F1F1F0B57
:105290000B0B0B0001246442200070BD092905D1CD
:1052A00000211800FFF760FF0024F5E70A2901D16B
:1052B0000839F6E700240B29EED10A391800FFF768
:1052C00053FFE9E7182201205343F218F3565568BB
:1052D000144ADB016C089B18C9B228401C1900282D
:1052E0000ED00F20303422780901024011434122B0
:1052F000C9B25B192170403319780A431A70D3E799
:1053000022000F26303214785B19B4432143117008
:1053100041224033197804000A431A70BCE7C046A2
:10532000E8CF000000440041F7B507000E0000245C
:10533000012501920093019B002B14D12900A1406B
:10534000009B380019404B1E9941FFF73DFF290093
:105350003000FFF739FF013400213000FFF734FF40
:10536000082CE8D1F7BD072329001B1B9940E7E76C
:10537000F7B506000D000C008B180193019B671B0D
:105380009C4207D0336821781B683000984701346D
:105390000028F3D13800FEBD70B5040008000D00F0
:1053A00004F0AAFE2368020029005B6820009847E9
:1053B00070BD10B50B1E02D0FFF7EEFF0300180002
:1053C00010BD10B5FFF7F5FF10BD000010B5024984
:1053D000FFF7E2FF10BDC04638D40000F0B58BB037
:1053E0006B461500002205330600DA770800012D10
:1053F00000D80A2509AC290001F0C0FFCAB2130089
:1054000037330700DBB2092902D813003033DBB28F
:10541000013C2370002FEED121003000FFF7C9FFBF
:105420000BB0F0BD10B5002A04D10368C9B21B68E7
:10543000984710BDD2B2FFF7D1FFFAE710B5FFF7DA
:10544000F1FF10BD70B50400FFF7ECFF0500200070
:10545000FFF7BCFF401970BD014B18607047C04694
:10546000900200200122024B52421A607047C0464F
:1054700090020020124A1368591C20D0013B13608F
:10548000002B1CD172B60F4B01221900187D10425F
:10549000FCD02022188BFF3202431A830A4ADA61B9
:1054A0000A4A1A8001230A7D1A42FCD0BFF34F8FAB
:1054B000074B084ADA60BFF34F8FC046FDE77047DD
:1054C00090020020004000410210000002A5FFFFF2
:1054D00000ED00E00400FA0510007047016070471D
:1054E0009446F0B59E1E721E96416246056892076C
:1054F0002F6836063A4332432A60072505AC2478E4
:105500000068A4012940214342680024022B00D0F6
:105510005C03114321434160F0BD30B5C0250368F1
:10552000AD031C6812052A402243C0240904A402CA
:1055300021401143196003685A6814435C6030BD10
:105540000123026811680B43136003681A68D207CD
:10555000FCD4DA69D207F9D47047022302681168D3
:105560000B4313600268D3699B07FCD47047036840
:105570001A7ED20702D41A7E9207FCD57047002209
:1055800003685A8370470368187E4007C00F70474E
:105590000368187EC0097047802302685B42117E51
:1055A0000B43137670470368588B8007C00F704712
:1055B00002230268518B0B43538370470368187EA4
:1055C000C007C00F70470368188DC0B270470368EA
:1055D0001A7ED207FCD589B20120198570470122B5
:1055E00003689A757047012203681A757047012392
:1055F000026811680B43136003681A68D207FCD471
:10560000DA69D207F9D470470223026811680B43A4
:1056100013600368DA699207FCD430215A8B8A43FD
:10562000110010220A435A830268D3695B07FCD435
:10563000704780230268DB02116851680B43536096
:1056400070470000036803491A685A680A405A60A4
:105650007047C046FFFFFBFF032230B503681140CF
:105660001C68074D5A6809042A40E4061143640F78
:105670005960052C03D10268D3695B07FCD430BDA7
:10568000FFFFFCFF30B503680400588B8006800FD5
:10569000022814D05D8B0020AD06AD0F032D2ED057
:1056A000588B800705D55D8B0020AD06AD0F012D11
:1056B00025D100205D8BAD06AD0F85421FD048007F
:1056C000596A1043C90AC0B2C9020143596223682A
:1056D000002A08D11A7ED207FCD5588B4007C30F89
:1056E000012058400BE0187E8007C00FF5D11A7ECC
:1056F000D207F8D5C022596892020A435A6030BDD9
:105700000368283319700368187EC007C00F03D1DF
:105710005A8BD207F8D57047588B4007C30F01202A
:105720005840F8E7036828331970036800201A7E90
:10573000520704D5588B01234007C00F58407047CB
:1057400003681868C006400F043843425841C0B28D
:1057500070470368187E4007C00F70470368187EC3
:10576000C007C00F70470368588BC006C00F704752
:105770000368187E8007C00F70470368588B0007C6
:10578000C00F704703681A68D206520F052A02D16B
:105790001A7E9207FCD528331878C0B270470000F3
:1057A0000368104A934213D00F4A934212D00F4A13
:1057B000934211D00E4A934210D00E4A93420FD01A
:1057C00001200D4A4042934201D1063040B2704759
:1057D0000020FBE70120F9E70220F7E70320F5E7C7
:1057E0000420F3E700080042000C004200100042D1
:1057F0000014004200180042001C0042F8B5FFF7F8
:10580000CFFF00282CDBC3001C48FF22C018052353
:105810000479C35603201840C0008240C021D243FF
:105820008140002B1DDB1F2501201D40C026A84004
:10583000134D7600A851C0269B089B005B19B6004B
:105840009F593A401143995128603F2323408024B7
:10585000E4011C430B4B5C805A7852B2002AFBDBFC
:10586000F8BD0F200340083B07489B089B001B180E
:10587000D86902401143D961E7E7C0463CD4000033
:1058800000E100E0000C004000ED00E0F8B504008D
:105890000F0016001D00FFF7B1FF2000FFF750FEBC
:1058A0001C21BB000B4071072268090C0B431360DD
:1058B000842322689375012F1AD11021012E00D064
:1058C00008390C4B69431868C00001F0D1FC07226D
:1058D000216802408B895203DB04DB0C13438B816C
:1058E000226803049089DB0C400B4003184390812D
:1058F000F8BDC04684020020F8B504000F00FFF791
:105900007DFF2000FFF773FE1422236879001A60E0
:105910000C4B25681E68300001F0AAFC0A490400FF
:10592000300001F0A5FC7D23FA215843C90001F0A5
:105930009FFCFF23241AE868053C1C40984304435D
:10594000EC60F8BD8402002040420F003F20704709
:1059500013B56B460268D9710733546819000122E8
:10596000A04716BD10B50221006900F08DFD034B64
:105970001B6801335A1E9341181810BDE402002021
:1059800010B50321006900F095FD10BD10B503218D
:10599000006900F05DFD10BD10B5054C23685A1C70
:1059A00004D103685B69984703002060180010BDAC
:1059B000E4020020074B0200186810B5411C03D018
:1059C000012252421A6010BD0221106900F05CFEF3
:1059D000F9E7C046E402002010B51300094A0400AC
:1059E000D079C0B2002805D1627E002A02D00123FE
:1059F000636006E00A002069032100F053FE0028DE
:105A0000F5D010BD9802002010B503784222023371
:105A100003700249024800F0F1FE10BDA002002010
:105A20001810002010B50178020043780020A12949
:105A300008D1212B05D107221649174800F0DEFEB8
:105A4000012010BD2129FCD1202B13D1072211499F
:105A5000114800F073FD96220E4BD2001968914256
:105A60000ED10124D87904400AD1FA20FFF7F4FCC2
:105A70000020E6E7222B06D19278064BDA71EAE79E
:105A8000FFF7F0FCF4E7232BDBD15288034B1A60BD
:105A9000D7E7C0469802002018100020940200208A
:105AA0000123437670470000FA220021054B920043
:105AB0009A60054A596008321A60044A19761A61D8
:105AC0007047C046F00F00206CD400001810002072
:105AD00070B50E0000254468002C0BD023683100FF
:105AE0005B6820009847002802DB2D18E468F3E784
:105AF00001256D42280070BD70B50D004468002C72
:105B000008D0236829009B6820009847002802D10C
:105B1000E468F4E7200070BD70B50D004468002C07
:105B200008D0236829001B6820009847002802D16C
:105B3000E468F4E7200070BD70B50D004468002CE7
:105B400008D023682900DB6820009847002802D18C
:105B5000E468F4E7200070BDF0B58C794578030067
:105B60002A190020072A1FDC5A68824216D1596080
:105B70001A78C8790A7112184D711A7000220B4DEB
:105B8000D0B284420FD98F6858789600F7598600B2
:105B90000130775101325870F2E70200D0680028D6
:105BA000FBD1D160E4E70120F0BDC046E80200204F
:105BB0000121054A10B5136804480B4003D1044C79
:105BC00043600480116010BD0C10002010100020F4
:105BD000020400007047704770B50F26CB1D0139D5
:105BE00002003240D5B22C0000093034092A00DD11
:105BF00007341C70013B8B42F2D170BDA02110B55F
:105C00000400490001F026FB200010BDF8B503296F
:105C100008D1304B8000C058002802D003689B6830
:105C20009847F8BD822919D1C3B22B4D5A01AA1841
:105C300091692A4C80010C40C02189052143916162
:105C40002749083340187021506128685B011A5CAD
:105C50008A43110030220A431A54E2E70029E0D1B6
:105C6000C026C1B21C4C4B01E3189A681B4DB60507
:105C70002A4032439A601B4A800182185A600A0007
:105C80000727246808325201115DB9430F00012132
:105C9000394311559F6912493D4040182E439E617A
:105CA00058617020115D8143080010210143115596
:105CB00099680D48A2180840802149030143996062
:105CC0009968890B89039960402311790B431371FB
:105CD000A7E7C0461C100020D0140020FFFFFF8F54
:105CE0004410002004120020FF3F00F0EFF3108367
:105CF00003600123436072B670470368002B02D132
:105D000062B6BFF36F8F7047F7B50500FC35EB69DE
:105D10000600002B18D196277F00C45D6846FFF768
:105D2000E5FF019BE4B2013B02D3F45DE4B2FAE784
:105D300068460193FFF7E1FF002C01D10020FEBD72
:105D4000E86AAB6AC01AFAE76846FFF7CFFF9E22FF
:105D50000024019B5200013B02D3B45CE4B2FAE799
:105D600068460193FFF7C9FF002CE7D0E86BAB6BE7
:105D7000E8E7000030B54468FC3043698069DBB275
:105D80005A01A2189168094D800429400009014375
:105D9000916091680833890B8903916022685B01E7
:105DA000D318402219790A431A7130BDFF3F00F021
:105DB000F7B50500FF21FC356A6943680A401B6896
:105DC000083252019A18D3790400DB0754D5012612
:105DD000D6716B6962680B405B01D318286A9A68B8
:105DE0009204920C002822D1EA62EA6A002A40D08A
:105DF0006A6B2E6268465A60FFF778FF9E273E2145
:105E0000019B7F00013BFF315A1C2ED0962252008D
:105E1000A654E25D581ED2B2002A05D066546846E8
:105E20000193FFF76AFFF7BD62540300ECE7EA63F2
:105E3000EA6B002A1DD000222A626A6A68465A600C
:105E4000FFF754FF96273E21019B7F00013BFF3166
:105E50005A1C0AD09E225200A654E25D581ED2B2AD
:105E6000002ADBD162540300F2E768460193FFF792
:105E700044FF2000FFF77EFF63681A686B69DBB29E
:105E800008335B01D3187F22DA71CCE7F7B507003E
:105E900068463C00FFF72AFF0026FF22019BFC34E6
:105EA000013B0DD3E0682169884204DBE668206984
